:020000040800F2
:1000000000000220D91300085513000857130008F8
:10001000591300085B1300085D130008000000007E
:100020000000000000000000000000006141000826
:100030005F13000800000000F14100086113000890
:10004000291400082914000829140008291400089C
:10005000291400082914000829140008291400088C
:10006000291400082914000829140008291400087C
:10007000291400082914000829140008291400086C
:10008000291400082914000829140008291400085C
:10009000291400082914000829140008291400084C
:1000A000291400082914000829140008291400083C
:1000B000291400082914000829140008291400082C
:1000C000291400082914000829140008291400081C
:1000D00029140008291400082914000879130008BD
:1000E00029140008291400082914000829140008FC
:1000F00029140008291400082914000829140008EC
:1001000029140008291400082914000829140008DB
:1001100029140008291400082914000829140008CB
:1001200029140008291400082914000829140008BB
:1001300029140008291400082914000829140008AB
:10014000291400082914000829140008291400089B
:10015000291400082914000829140008291400088B
:10016000291400082914000829140008291400087B
:1001700029140008291400082914000800000000B0
:080180002914000829140008ED
:1001900010B5054C237833B9044B13B10448AFF3C1
:1001A00000800123237010BD6800002000000000C3
:1001B0002852000808B5034B1BB103490348AFF3AD
:1001C000008008BD000000006C00002028520008DC
:1001D00001F0FF01102A2BDB10F0070F08D010F8F8
:1001E000013B013A8B422DD010F0070F42B3F6D1FC
:1001F000F0B441EA012141EA014122F007047FF015
:1002000000070023F0E80256083C85EA010586EA6B
:10021000010685FA47F5A3FA87F586FA47F6A5FAA7
:1002200087F68EB9EED1F0BC01F0FF0102F00702B3
:1002300032B110F8013B013A83EA010313B1F8D15E
:100240000020704701387047002D06BF354603383F
:10025000073815F0010F07D1013015F4807F02BF78
:10026000013015F4C03F0130F0BC0138704700BFC9
:1002700053B94AB9002908BF00281CBF4FF0FF310D
:100280004FF0FF3000F070B9ADF1080C6DE904CE0D
:1002900000F006F8DDF804E0DDE9022304B0704761
:1002A0002DE9F047089E0D4604460F46002B4AD123
:1002B0008A42944665D9B2FA82F343B102FA03FC4A
:1002C000C3F120029F4020FA02F217439C404FEAFC
:1002D0001C4E1FFA8CF5B7FBFEF1220C0EFB1177BA
:1002E00042EA074201FB05F090420AD91CEB0202E8
:1002F00001F1FF3780F01C81904240F219810239F0
:100300006244121AA4B2B2FBFEF00EFB102244EAC1
:10031000024400FB05F5A5420AD91CEB040400F1D8
:10032000FF3280F00781A54240F204816444023824
:1003300040EA0140641B00211EB1DC400023C6E9F5
:100340000043BDE8F0878B4208D9002E00F0ED8015
:100350000021C6E900050846BDE8F087B3FA83F13D
:10036000002949D1AB4202D3824200F2F880841ABC
:1003700065EB030201201746002EE2D0C6E90047D4
:10038000DFE702B9FFDEB2FA82F3002B40F0908083
:100390008A1A4FEA1C471FFA8CFE0121B2FBF7F5BF
:1003A00007FB1520220C42EA00420EFB05F09042AA
:1003B00008D91CEB020205F1FF3802D2904200F28C
:1003C000CB804546121AA4B2B2FBF7F007FB10220D
:1003D00044EA02440EFB00FEA64508D91CEB0404C7
:1003E00000F1FF3202D2A64500F2BB801046A4EB1A
:1003F0000E0440EA05409FE7C1F120078B4022FA36
:1004000007FC4CEA030C05FA01F420FA07F3FD405F
:100410004FEA1C492343B5FBF9F81FFA8CFE09FB90
:1004200018551C0C44EA054408FB0EF5A54202FAD7
:1004300001F200FA01F00BD91CEB040408F1FF3AB9
:1004400080F08880A54240F28580A8F102086444CB
:10045000641B9DB2B4FBF9F309FB134445EA044461
:1004600003FB0EFEA64508D91CEB040403F1FF357F
:100470006CD2A6456AD9023B644443EA0843A3FB15
:100480000295A4EB0E04AC42C846AE4656D353D0F8
:1004900056B1B0EB080264EB0E0404FA07F7CA4049
:1004A000CC401743C6E9007418460021BDE8F08728
:1004B000C3F1200102FA03FC20FA01F225FA01F14E
:1004C0009D402A434FEA1C471FFA8CFEB1FBF7F010
:1004D00007FB1015110C41EA054100FB0EF58D429A
:1004E00004FA03F408D91CEB010100F1FF382FD204
:1004F0008D422DD902386144491B92B2B1FBF7F508
:1005000007FB151142EA014205FB0EF1914208D9A1
:100510001CEB020205F1FF3816D2914214D9023DBC
:100520006244521A45EA004138E73146304608E74E
:100530003946E6E61046FBE64845A9D2B9EB020883
:1005400065EB0C0E013BA3E74546EAE72B4694E733
:100550004046D1E7D0467BE7023D624432E7084699
:100560000AE76444023842E7704700BF07B54123F9
:100570000C4C8DF807309DF80730592B9ABF01338A
:10058000DBB241238DF8073001224FF6FF730DF1E6
:100590000701204602F0ECF84FF47A7002F08FFB6E
:1005A000E9E700BFC80100202DE980485B4F5C4DA2
:1005B0005C4E5D4CDFF89081DFF8909189B03C2172
:1005C000384601F06EFC3C21284601F06AFC3B688D
:1005D0005B6A33802B685B6A238000F071FF002127
:1005E000C8F800001A2201A8009104F099F900F05F
:1005F00067FFD8F80030C01AB0F57A7FF7D9D7F87E
:1006000000E04A4ADEF824302868DFF844A10FFAF7
:1006100083FCA2F800C0426ADEF800B0B6F900E040
:1006200011B21BF0100FAAF80010B6F800A065D0A8
:10063000F4459BB203DAAAEB03031BB205E00AF10F
:10064000FF3AAAEB030A0FFA8AF3D0F800E0B4F9F4
:1006500000C02088A9F800301EF0100F92B255D0CB
:100660006145A8BF00F1FF30801A02B20133DFF804
:10067000E4A02F49AAF8002004BF0023A9F8003005
:10068000013208BF0023B9F9002008BFAAF80030E2
:10069000684604F025F90A216A46084604F078F80D
:1006A000BAF900202349684604F01AF96A46142171
:1006B0000A2004F06DF8204B2049B3F90020684669
:1006C00004F00EF96A461E210A2004F061F81C4B62
:1006D0001C49B3F90020684604F002F96A46282153
:1006E0000A2004F055F83B685B6A33802B685B6A2C
:1006F000238000F0E5FEC8F8000078E7A3EB0A03CA
:100700009BB2F445D8BF03F1FF3396E7121A92B2B9
:100710006145D8BF02F1FF3212B2A7E7F000002016
:100720003801002092000020960000209400002054
:10073000405200084D5200080E0200205A52000894
:100740000C0200206852000810020020A0000020C7
:1007500098000020A200002008B503F081FF0A20C5
:1007600002F0ADFAF9E7000000B595B02C220021A7
:1007700009A804F0D5F81422002103A804F0D0F849
:100780000023194A0193116C41F080511164126CDD
:1007900002F080520192019A144A0293116841F4C6
:1007A0008041116012680E9302F480420292029A14
:1007B0000222089201201022CDE90B0208A801F0C4
:1007C0004DF8014608B172B6FEE70F23CDE90330BC
:1007D000CDE90500079003A801F01AFA08B172B636
:1007E000FEE715B05DF804FB0038024000700040E1
:1007F00080B59AB000F03EFEFFF7B6FF142200214C
:1008000011A804F08DF80024A54B00941A6BA5489C
:10081000A54D42F010021A631A6B02F0100200920A
:10082000009A01941A6B42F001021A631A6B02F0EB
:1008300001020192019A02941A6B42F004021A63B7
:100840001A6B02F004020292029A03941A6B42F0AD
:1008500002021A631B6B03F00203039322464FF458
:10086000BC61039B00F0D8FF224690483C2100F079
:10087000D3FF01264FF4BC638A4811A9CDE9113694
:10088000CDE9134400F0EEFE3C23CDE91136874854
:100890001394022311A9149300F0E4FE21461C22B4
:1008A00012A804F03DF80A274FF080434FF6FF7876
:1008B0004FF0030911A92846CDE90A44C5E90034DF
:1008C000C5E90384AC60AC61CDF8449013961597EC
:1008D0001796199701F0FCFB08B172B6FEE7CDE957
:1008E0000A000AA9284601F0EFFD044608B172B6D5
:1008F000FEE76F4D01461C2212A804F011F86D4B63
:100900002C6111A92846CDE90A44C5E90034C5E99E
:100910000248AC61CDF84490139615971796199735
:1009200001F0D6FB08B172B6FEE7CDE90A000AA9CC
:10093000284601F0C9FD054608B172B6FEE701463A
:10094000102206A803F0ECFF1C2229460AA8CDE9D4
:10095000045503F0E5FF2022294611A803F0E0FF2B
:10096000554C564BA560C4E90035204641F61F435F
:10097000C4E90335C4E9055501F052FB08B172B66C
:10098000FEE74FF4805306A92046069301F08DFC44
:1009900008B172B6FEE7204601F06EFB08B172B6F0
:1009A000FEE7CDE9040004A9204601F08DFD0246D2
:1009B00008B172B6FEE76023CDE90A30CDE90C003C
:1009C000CDE90E0010900AA9204601F00BFC08B1F9
:1009D00072B6FEE704220AA9204601F003FC08B122
:1009E00072B6FEE70023344815934FF4005611A960
:1009F000CDE91133CDE913331696189301F0A2FD1A
:100A0000054608B172B6FEE70146102206A803F0BB
:100A100087FF1C2229460AA8CDE9045503F080FF70
:100A20002946202211A803F07BFF254C2549A5600B
:100A3000A023C4E9001320464FF47A73C4E90335B8
:100A4000C4E9055501F0ECFA08B172B6FEE74FF4BF
:100A5000805306A92046069301F027FC08B172B620
:100A6000FEE7204601F008FB08B172B6FEE7CDE9CB
:100A7000040004A9204601F027FD08B172B6FEE784
:100A80006023CDE90A30CDE90E000C9010900C22C5
:100A90000AA9204601F0A6FBB0B172B6FEE700BF7E
:100AA0000038024000100240F00000200000024028
:100AB00038010020000400408001002000040140B3
:100AC000A800002000000140CDE91100CDE913008D
:100AD000CDE91506189011A9204601F033FD054611
:100AE00008B172B6FEE7204600F0C0FB1D4C1E4A5E
:100AF00025614FF4E133C4E9002320460C23C4E907
:100B00000255C4E90535E56101F004FE054608B16A
:100B100072B6FEE703F05CFE14490122204602F0A3
:100B200042F802F059F8124A1248294602F080F8B9
:100B3000114B124A18602946114802F079F8114BFE
:100B4000114A18602946114802F072F8104B114AF8
:100B500018602946104802F06BF8104B186002F03C
:100B60004DF8FEE7C801002000480040900000203A
:100B70000C5300086D0500089C000020C4520008BA
:100B8000E10C000888000020A0520008A905000818
:100B900084000020E8520008590700088C0000205B
:100BA000084A00231380084A1380084A1380084A21
:100BB0001380084A12684FF4FA705363936302F08B
:100BC0007EB800BF04000020060000200C020020B8
:100BD0000E0200208001002038B5114B1C68012C4A
:100BE0001DD100251D60FFF7DBFF4FF47A7002F086
:100BF00066F82A460B48082100F00EFE22460948F6
:100C0000042100F009FE2A460648102100F004FEE7
:100C100022460448BDE83840202100F0FDBD38BD23
:100C2000000000200000024038B5114B1D68EDB9EE
:100C300001241C60FFF7B4FF4FF47A7002F03FF814
:100C40002A460C48042100F0E7FD22460948082105
:100C500000F0E2FD2A460748202100F0DDFD224693
:100C60000448BDE83840102100F0D6BD38BD00BFB3
:100C7000000000200000024008B5FFF7D5FF0C4A35
:100C80004FF47A7313800B4A13800B4A4FF44D7361
:100C900013800A4A13800A4A126853639363094B0C
:100CA0001B681A6C632A94BF9E228C221A6408BDAA
:100CB00004000020060000200C0200200E0200208C
:100CC00080010020A8000020044B1B681A6C8C2AAD
:100CD0000CBF8D228C221A64704700BFA800002030
:100CE00080B5042169486A4D6A4C6B4F6B4EDFF842
:100CF000B081DFF8C09101F0E5FB0021634801F00D
:100D0000E1FB0C21664801F0DDFB6648002204216E
:100D100000F082FD63480122082100F07DFD61485A
:100D20000022202100F078FD012210215D4800F012
:100D300073FD2B8823803B883380FFF79DFF4FF4A2
:100D40007A7001F0BCFFFFF797FF4FF47A7001F063
:100D5000B6FFFFF725FFD8F800301A6C8C2A04D9AB
:100D60001B6C952B01D8FFF7AFFF2888B4F800E083
:100D7000B6F800C03988AEEB000212B2002ADABF22
:100D8000A0EB0E0000B21046ACEB0103B0F5FA7F09
:100D90001BB235DD1E2092FBF0F2002BD8BFA1EB79
:100DA0000C014148D4BF09B21946B1F5FA7F02805F
:100DB00049DD1E2193FBF1F33C493D480B80B9F816
:100DC0000010891A028809B20029A2EB03031BB2A2
:100DD000B8BF0A22A9F80010B8BFA9F80020002B5C
:100DE0000380BCBF0A230380284BB9F900201B688D
:100DF0005A63B0F900209A63FA2001F060FFAAE775
:100E0000FA2801DD1420C6E7962801DD1220C2E78A
:100E1000642801DD0A20BEE74B28F3DC322801DD1F
:100E20000F20B8E71928F5DC0A2804DD002AB8BF2E
:100E30000732D210B1E7052801DD0320ABE702EB52
:100E4000D2725210A9E7FA2901DD1421B2E79629DE
:100E500001DD1221AEE7642901DD0A21AAE74B2951
:100E6000F3DC322901DD0F21A4E71929F5DC0A2979
:100E700004DD002BB8BF0733DB109DE7052901DD3A
:100E8000032197E703EBD3735B1095E78001002004
:100E900004000020A000002006000020A200002086
:100EA000A800002000000240A4000020A6000020AE
:100EB0000E0200200C02002008B5FFF7B5FE0D4B16
:100EC0004FF496721A800C4B4FF47A721A800B4BC7
:100ED0001E2119800A4B4FF44D721A80094B1B6872
:100EE000C82059639A6301F0EAFE074B1B68502241
:100EF0001A6408BD04000020060000200C02002037
:100F00000E02002080010020A800002008B5FFF795
:100F10008BFE0D4B4FF47A721A800C4B4FF4967285
:100F20001A800B4B4FF44D7119800A4B1E221A8008
:100F3000094B1B68C82059639A6301F0C0FE074B38
:100F40001B68FA221A6408BD040000200600002075
:100F50000C0200200E02002080010020A8000020CA
:100F600008B5FFF739FE0C4A4FF47A7313800B4A29
:100F700013800B4A4FF44D7313800A4A13800A4AB8
:100F8000126853639363094B1B681A6C632A94BFFE
:100F90009E228C221A6408BD040000200600002056
:100FA0000C0200200E02002080010020A80000207A
:100FB00008B5FFF711FE0D4B4FF496721A800C4BDB
:100FC0004FF47A721A800B4B1E2119800A4B4FF492
:100FD0004D721A80094B1B68C82059639A6301F04F
:100FE0006EFE074B1B6850221A6408BD04000020E7
:100FF000060000200C0200200E02002080010020CC
:10100000A800002008B5FFF7E7FD0D4B4FF47A72FA
:101010001A800C4B4FF496721A800B4B4FF44D71A3
:1010200019800A4B1E221A80094B1B68C82059637D
:101030009A6301F044FE074B1B68FA221A6408BD4C
:1010400004000020060000200C0200200E020020F8
:1010500080010020A800002010B5184C3221224643
:101060000A2003F095FB2378662B01D1FFF704FEDD
:101070002378722B01D1FFF749FF23786C2B01D124
:10108000FFF71AFF2378732B01D1FFF789FD23782F
:10109000622B01D1FFF764FF2378782B01D1FFF792
:1010A00087FF2378792B01D1FFF7ACFFBDE8104013
:1010B00002490348012201F076BD00BF90000020E4
:1010C000C801002082B00E4B00220092596C41F4FE
:1010D00080415964596C01F480410091009901925A
:1010E000196C41F0805119641B6C03F0805301931B
:1010F000019B0F216FF0010002B000F00DBA00BF9C
:101100000038024010B5044688B01422002103A81C
:1011100003F006FC23681A4A93420DD10023009382
:10112000184B5A6C42F001025A645B6C03F00103E5
:101130000093009B08B010BD134A9342FAD1114BA3
:101140001248002101915A6C42F002025A645A6C12
:1011500002F002020192019A02911A6B42F004021B
:101160001A631B6B03F004030293029BC022022349
:10117000CDE9032303A90323079300F073FAD9E70A
:101180000000014000380240000401400008024015
:1011900070B514228AB0044600210DEB020003F062
:1011A000BFFB2368B3F1804F37D103F50E33002422
:1011B00000941A6C294842F001021A641A6C02F079
:1011C00001020092009A01941A6B42F001021A6324
:1011D0001A6B02F001020192019A02941A6B42F01A
:1011E00002021A631B6B03F002030293029B0226A6
:1011F0004FF40043012505A9CDE90536099500F016
:1012000031FA0823CDE90536CDE90744144809959C
:1012100005A900F027FA0AB070BD124A9342FAD12C
:10122000114B0E48002103911A6C42F002021A641D
:101230001A6C02F002020392039A04911A6B42F0B4
:1012400001021A631B6B03F001030493049BC02289
:101250000223CDE90523099305A9DAE7000002403E
:1012600000040240000400400038024010B504466B
:1012700086B01422002101A803F052FB22680E4B15
:101280009A4216D1002300930C4B0D481A6B42F082
:1012900010021A631B6B03F010030093009B4FF4C2
:1012A00080420223CDE9012301A90123059300F027
:1012B000D9F906B010BD00BF00000140003802405F
:1012C0000010024070B5044688B01422002103A823
:1012D00003F026FB22681D4B9A4235D103F5F83303
:1012E000002501951A6C1A4842F480221A641A6C7F
:1012F00002F480220192019A02951A6B42F00402D4
:101300001A631B6B03F0040302930224029B0694EE
:101310004FF48063072603A9CDE90334079600F054
:10132000A1F94FF400630A48079603A9CDE90334F5
:10133000CDE9054400F096F927202A46052100F062
:10134000EBF8272000F01AF908B070BD0048004003
:1013500000080240FEE7FEE7FEE7FEE7FEE7704713
:1013600008B500F0A1F802F063FC012803D0BDE845
:10137000084002F06FBF08BD014801F0B3BA00BFDA
:10138000C80100200B4A116810B5034609B90A4983
:101390001160106809490A4C0344091B8B4206D9A5
:1013A00003F0C6FA0C2303604FF0FF3010BD13604A
:1013B000FCE700BF14020020B05000200000022013
:1013C00000040000034AD2F8883043F47003C2F8E6
:1013D0008830704700ED00E0DFF834D00D480E494A
:1013E0000E4A002302E0D458C4500433C4188C427F
:1013F000F9D30B4A0B4C002301E013600432A242E4
:10140000FBD3FFF7DFFF03F099FAFFF7F1F970471D
:10141000000002200000002068000020045E000898
:1014200068000020B0500020FEE7000038B50E4BE9
:101430001A784FF47A73B3FBF2F30C4A054610683E
:10144000B0FBF3F000F0A8F8044658B90F2D09D806
:10145000024629464FF0FF3000F05EF8044B20466C
:101460001D6038BD0120FCE70C00002008000020B2
:101470001000002008B50B4B1A6842F400721A6085
:101480001A6842F480621A601A6842F480721A6024
:10149000032000F02FF80F20FFF7C8FFFFF712FE20
:1014A000002008BD003C0240034A044B11681B7831
:1014B0000B441360704700BF180200200C0000208E
:1014C000014B1868704700BF1802002038B5044669
:1014D000FFF7F6FF631C1CBF054B1B78054618BFC2
:1014E000E418FFF7EDFF431BA342FAD338BD00BF5A
:1014F0000C0000200749CA6822F4E06203021204CB
:1015000003F4E063120C134343F0BF6343F400336E
:10151000CB60704700ED00E0164B30B5DC68C4F3DB
:101520000224C4F10703251D042B28BF0423062D24
:101530004FF0FF358CBF033C002405FA03F321EA8A
:101540000303A54022EA0502A340002843EA020360
:10155000ACBF00F16040084A4FEA0313B8BF00F087
:101560000F00DBB2AABF00F56140135480F80033CE
:1015700030BD00BF00ED00E014ED00E0002807DB07
:101580004109044A00F01F000123834042F8213042
:10159000704700BF00E100E00138B0F1807F0BD25E
:1015A0004FF0E023054A5861F02182F82310002013
:1015B000072298611A6170470120704700ED00E032
:1015C00070B50446866DFFF77BFF94F83530022B2B
:1015D000054606D0802363650120002384F834305B
:1015E00070BD23681A6822F016021A605A6922F048
:1015F00080025A61226C0AB9A26C1AB11A6822F0F0
:1016000008021A601A6822F001021A6023681B6837
:1016100013F0010308D1E16D3F228A40B26001223C
:1016200084F835201846D8E7FFF74AFF401B052805
:10163000ECD920230320636584F83500CDE790F8CA
:101640003530022B03D080234365012070470268A8
:10165000052380F83530136823F001031360002060
:10166000704700002DE9F74FDFF8A891674A002383
:101670000D6801249C4004EA050CAC4340F0B180A5
:101680004D6805F003044FEA43080326671E06FA77
:1016900008F6012F6FEA060634D8876807EA060EB7
:1016A000CF6807FA08F747EA0E078760476827EA16
:1016B0000C0EC5F300179F4047EA0E074760C76846
:1016C00007EA060E8F6807FA08F747EA0E07022CAA
:1016D000C76019D14FEAD30A00EB8A0A03F0070B5F
:1016E000DAF820704FEA8B0B4FF00F0E0EFA0BFE5C
:1016F00027EA0E0E0F6907FA0BF747EA0E07CAF83A
:10170000207001E0032CDAD1076804FA08F43740AE
:101710003C4315F4403F046063D04FF0000ACDF81D
:1017200004A0D9F844603A4C46F48046C9F84460B5
:10173000D9F8446006F480460196019E23F0030622
:1017400006F1804606F59C3603F0030ED6F80880B5
:101750004FEA8E0E0F2707FA0EF7A04228EA070776
:1017600046D004F58064A04244D004F58064A042D1
:1017700042D004F58064A04240D004F58064A042C9
:101780003ED004F58064A0423CD004F58064A042C1
:101790003AD004F58064A0420CBF0724082404FA60
:1017A0000EF43C43B46094686FEA0C06EF0254BF39
:1017B00034404CEA04049460D468AF0254BF34400F
:1017C0004CEA0404D4605468AF0354BF34404CEA7C
:1017D000040454601468ED0354BF34404CEA04041C
:1017E00014600133102B7FF443AF03B0BDE8F08FDA
:1017F0005446D4E70124D2E70224D0E70324CEE7FD
:101800000424CCE70524CAE70624C8E7003C0140CD
:1018100000000240003802400AB1816170470904AB
:10182000FBE70000044B01221A62044B82B01B68E4
:101830000193019B02B0704700000E42007000400F
:10184000044B00221A62044B82B01B680193019B77
:1018500002B0704700000E42007000402DE9F341D5
:10186000044640B30368DD0710D4236898075BD4AF
:1018700023681A0700F19D8023685B0700F1BD8093
:10188000A069002840F0248100202CE08D4B9A684C
:1018900002F00C02042A07D09A6802F00C02082A0F
:1018A0000BD15B68590208D5864B1B689A03DCD5BF
:1018B0006368002BD9D1012015E06368814DB3F531
:1018C000803F13D12B6843F480332B60FFF7F8FD82
:1018D0007C4E054633689B03C7D4FFF7F1FD401BE0
:1018E0006428F7D9032002B0BDE8F081B3F5A02F3A
:1018F00004D12B6843F480232B60E3E72A6822F4A9
:1019000080322A602A6822F480222A60002BDDD1EE
:10191000FFF7D6FD06462B689F03A6D5FFF7D0FD3F
:10192000801B6428F7D9DDE7664B9A6812F00C0F2C
:1019300007D09A6802F00C02082A11D15B685E0297
:101940000ED4604A13689D0702D5E368012BB2D11B
:101950001368216923F0F80343EAC103136087E7A2
:10196000E268594BB2B101221A60FFF7A9FD554D4B
:1019700006462B68980707D52B68226923F0F803E1
:1019800043EAC2032B6073E7FFF79AFD801B02282E
:10199000EFD9A7E71A60FFF793FD4A4E0546336873
:1019A00099077FF565AFFFF78BFD401B0228F6D93D
:1019B00098E76269444B82B10122C3F8802EFFF799
:1019C0007FFD404E0546736F9F073FF555AFFFF70C
:1019D00077FD401B0228F6D984E7C3F8802EFFF775
:1019E0006FFD384E0546736F98077FF545AFFFF7DB
:1019F00067FD401B0228F6D974E7324B1A6C12F0CF
:101A0000805228D101921A6C42F080521A641B6CE9
:101A100003F080530193019B01272C4D2B68D905BE
:101A20001BD5A368274D012B27D12B6F43F0010352
:101A30002B67FFF745FD234E054641F28838336F8B
:101A40009B0739D5002F3FF41BAF1E4A136C23F0C0
:101A50008053136414E70027DFE72B6843F4807397
:101A60002B60FFF72DFD06462B68DA05D9D4FFF76A
:101A700027FD801B0228F7D934E7052B04D12B6FF3
:101A800043F004032B67D0E72A6F22F001022A6794
:101A90002A6F22F004022A67002BCAD1FFF710FD3B
:101AA00041F2883806462B6F9807CBD5FFF708FD23
:101AB000801B4045F7D915E7FFF702FD401B404565
:101AC000BDD90FE7003802400000474200700040D7
:101AD000364DAB6803F00C03082B3DD0344B00228D
:101AE00002281A662BD1FFF7EBFC06462B689901FA
:101AF0001FD4D4E907321343626A43EA8213E26ACD
:101B000043EA0263A26A5208013A43EA02436B6065
:101B1000274B264D01221A66FFF7D2FC04462B689C
:101B20009A013FF5B1AEFFF7CBFC001B0228F6D9B6
:101B3000D8E6FFF7C5FC801B0228D7D9D2E6FFF70D
:101B4000BFFC04462B689B017FF59EAEFFF7B8FCF7
:101B5000001B0228F6D9C5E601283FF4C4AE6B6825
:101B6000E26903F4800191427FF4A5AE216A03F09B
:101B70003F028A427FF49FAE616A47F6C0721A4004
:101B8000B2EB811F7FF497AEA26A520803F4403192
:101B9000013AB1EB024F7FF48EAEE26A03F070635C
:101BA000B3EB026F3FF470AE85E600BF0038024031
:101BB00000004742134908B58B6803F00C03042B5F
:101BC0001CD0082B1CD14A684B68496813F4800369
:101BD00014BF0D480D48C1F3881118BF002302F04F
:101BE0003F02A1FB0001FEF743FB064B5B68C3F31A
:101BF000014301335B00B0FBF3F008BD0248FCE792
:101C00000248FAE70038024040787D010024F400E1
:101C10002DE9F0410D46044610B90120BDE8F081E0
:101C2000434B1A6802F007028A4228D321688F07C3
:101C30002DD4C80740D43E4B1A6802F00702AA42CE
:101C400065D8226851076BD4130707D5394A216933
:101C5000936823F4604343EAC1039360FFF7AAFF4C
:101C6000344B354A9B68C3F30313D35CD840334BE2
:101C70001860334B1868FFF7D9FB0020CEE7CAB2D3
:101C80001A701B6803F007038B42C6D1CEE7294BBD
:101C900011F0040F1EBF9A6842F4E0529A600E07DA
:101CA00042BF9A6842F460429A609A68A06822F043
:101CB000F00202439A60BCE762681E4B012A1CD105
:101CC0001B6813F4003FA8D01A4EB36823F0030337
:101CD0001343B360FFF7F4FB41F288380746B3685B
:101CE000626803F00C03B3EB820FA4D0FFF7E8FBAC
:101CF000C01B4045F3D9032090E7911E01291B68C2
:101D000002D813F0007FDEE713F0020FDBE7EAB240
:101D10001A701B6803F00703AB427FF47EAF90E7B5
:101D20000449E0688B6823F4E05303438B608BE73E
:101D3000003C0240003802403053000808000020F8
:101D400010000020044B054A9B68C3F38223D35C38
:101D5000034A1068D84070470038024040530008DA
:101D600008000020044B054A9B68C3F34233D35C50
:101D7000034A1068D84070470038024040530008BA
:101D800008000020036A23F001030362036A70B5B0
:101D9000446882690D6822F073022A438D6823F03B
:101DA00002032B430E4DA84202D00E4EB04210D17A
:101DB000CE6823F008033343A84223F0040302D083
:101DC000084DA84205D1D1E9055624F440743543A5
:101DD0002C43446082614A684263036270BD00BF65
:101DE0000000014000040140036A23F48073036291
:101DF000036A70B54468C2690D6822F073022A4311
:101E00008D6823F4007343EA0523114DA84203D0E3
:101E100005F58065A84214D1CD6823F4006343EA38
:101E200005230B4DA84223F4806303D005F580659C
:101E3000A84206D1D1E9055624F44054354344EA7A
:101E400005144460C2614A68C263036270BD00BF8A
:101E500000000140036A23F480530362036A30B533
:101E60004468C2690D6822F4E64242EA05228D68A0
:101E700023F4005343EA0533084DA84203D005F587
:101E80008065A84204D14D6924F4804444EA851455
:101E90004460C2614A680264036230BD00000140D0
:101EA000704730B5034690F83E0093F83F2093F812
:101EB000425093F84340C0B2D2B2EDB2E4B2C1B9DD
:101EC000012845D1012D13D1022283F83E2083F849
:101ED00042201A68116A21F001011162116A41F071
:101EE000010111621A68136843F0010313600020B6
:101EF00030BD042911D1012A2AD1012C28D1022276
:101F000083F83F2083F843201A68116A21F01001FA
:101F10001162116A41F01001E3E7012818D1012A8A
:101F2000E6D1012DE4D1012CE2D1022283F83E203A
:101F300083F83F2083F8422083F843201A68116A0F
:101F400021F001011162116A41F001011162DCE727
:101F50000120CDE7304A0368904212D0B0F1804FA3
:101F60000FD0A2F57C4290420BD002F580629042E5
:101F700007D002F58062904203D002F57842904289
:101F800019D14A6823F070031343234A904229D0A1
:101F9000B0F1804F26D0A2F57C42904222D002F5CB
:101FA000806290421ED002F5806290421AD002F503
:101FB0007842904216D0194A904213D002F58062BE
:101FC00090420FD002F5806290420BD0A2F5983279
:101FD000904207D002F58062904203D002F5806201
:101FE000904203D1CA6823F4407313434A6923F033
:101FF0008003134303608B68C3620B688362064BE4
:10200000984203D003F58063984201D10B690363C2
:1020100001234361704700BF0000014000400140C0
:1020200010B5044630B390F83D3003F0FF021BB901
:1020300080F83C20FFF766F80223206884F83D30E2
:10204000211DFFF787FF012384F84630002084F824
:102050003E3084F83F3084F8403084F8413084F8D2
:10206000423084F8433084F8443084F8453084F8B2
:102070003D3010BD0120FCE710B5044630B390F8A8
:102080003D3003F0FF021BB980F83C20FFF708FF4A
:102090000223206884F83D30211DFFF75BFF0123F8
:1020A00084F84630002084F83E3084F83F3084F8CD
:1020B000403084F8413084F8423084F8433084F86A
:1020C000443084F8453084F83D3010BD0120FCE7F1
:1020D000F8B50D46044600284CD090F83D3003F08A
:1020E000FF021BB980F83C20FFF752F8214602237B
:1020F00084F83D3051F8040B836823F4804323F0C7
:1021000007038360FFF726FF81682A688369AE6949
:10211000076A1143AA6823F4407323F0030342EAD9
:1021200006221A432B69EE691B0143EA0623EE6877
:1021300033432E6A22F47C4222F0FC0243EA063347
:1021400013436E696A68816027F0AA0742EA0612A3
:10215000836117430123076284F84630002084F826
:102160003E3084F83F3084F8423084F8433084F8BD
:102170003D30F8BD0120FCE7036A23F01003036241
:10218000036A70B5446882690D6822F4E64242EA47
:1021900005228D6823F0200343EA0513104DA84261
:1021A00003D005F58065A84214D1CD6823F08003E3
:1021B00043EA05130A4DA84223F0400303D005F576
:1021C0008065A84206D1D1E9055624F44064354320
:1021D00044EA8504446082614A688263036270BD98
:1021E0000000014070B590F83C30012B054650D0FE
:1021F0000123082A80F83C303BD007D8C2B1042A1A
:1022000027D01846002385F83C3070BD0C2AF8D141
:102210000068FFF71FFEC3690A6943F40063C361E6
:10222000C36923F48063C361C36943EA02232EE0D8
:102230000068FFF7A7FD83690A6943F0080383611B
:10224000836923F00403836183691343836100205E
:10225000D8E70068FFF790FF83690A6943F40063D9
:102260008361836923F480638361836943EA022382
:10227000ECE70068FFF7B8FDC3690A6943F008039B
:10228000C361C36923F00403C361C3691343C3611A
:10229000DDE70220B9E710B58468114324F47F44D8
:1022A00041EA03232343836010BD38B590F83C30E6
:1022B000012B04464FF0020300F08E80012280F8CB
:1022C0003D3080F83C200068836823F47F4323F08E
:1022D000770383600B68602B4FD032D8402B64D0DB
:1022E00016D8202B0DD00AD833F0100109D00123C5
:1022F00084F83D30002384F83C30104638BD302B44
:10230000F5D1826822F07002134343F0070328E0FE
:10231000502BECD14A68CD68016A036A23F00103AF
:102320000362836921F00A0123F0F00343EA0513F5
:102330000A4383610262836823F0700343F057030A
:102340000FE0B3F5805F0DD0B3F5005F0CD0702BBC
:10235000CDD1CB68D1E90121FFF79DFF836843F020
:10236000770383600022C2E7CB68D1E90121FFF740
:1023700092FF836843F48043F3E7036A4D68C968BA
:1023800023F0100303628269036A22F4704223F08F
:10239000A00343EA051342EA0132826103628368C3
:1023A00023F0700343F06703DBE74A68CD68016AF6
:1023B000036A23F001030362836921F00A0123F019
:1023C000F00343EA05130A4383610262836823F042
:1023D000700343F04703C4E71A468EE7036A01F02F
:1023E0001F0110B501248C4023EA04030362036A31
:1023F0008A401A43026210BD08B529B990F83E30F0
:10240000012B18D001202CE004290DD190F83F3089
:10241000013B18BF0123002BF4D104294FF0020324
:1024200020D180F83F3009E008290CBF90F84030F7
:1024300090F84130ECE7022380F83E30006801223A
:10244000FFF7CCFF1C4A904213D01C4B984210D08F
:10245000B0F1804F14D1836803F00703062B26D117
:10246000002008BD08290CBF80F8403080F84130BA
:10247000E4E7436C904243F400434364EBD0E7E766
:102480000F4B9842E7D003F580639842E3D003F501
:1024900080639842DFD003F578439842DBD003F5A0
:1024A00070539842D7D0A3F594339842D3D00368A1
:1024B00043F001030360D3E7000001400004014042
:1024C00000040040FFF798BF30B590F83C30012B76
:1024D0004FF0020332D080F83D3003680D685C682D
:1024E0009A6824F070042C435C60154CA3421AD007
:1024F000B3F1804F17D0A4F57C44A34213D004F568
:102500008064A3420FD004F58064A3420BD004F58D
:102510007844A34207D004F57054A34203D0A4F535
:102520009434A34204D1496822F080020A439A609D
:10253000012380F83D30002380F83C30184630BD40
:102540000000014090F83C30012B1FD0CB688A6816
:1025500023F4407313434A6823F4806313430A68E7
:1025600023F4006313430A6923F4805313434A6935
:1025700023F400531343CA6923F4804313430268CE
:102580005364002380F83C3018467047022070479F
:10259000026802F10C0353E8003F23F490730C32FD
:1025A00042E8003102680029F2D102F1140353E835
:1025B000003F23F0010302F1140C4CE80031002924
:1025C000F3D1036B012B0BD102F10C0353E8003F55
:1025D00023F0100302F10C0C4CE800310029F3D178
:1025E000202380F83E300023036370470268C168EF
:1025F000136923F440530B4370B513610546836898
:102600000069D168034368690343E86921F416410E
:1026100021F00C0103430B43D3605369A96923F4F0
:1026200040730B4353611F4B9A4203D003F5806301
:102630009A4223D1FFF796FBEB691921B3F5004FBE
:10264000D5E90046A0FB01011BD1B2194FF00003F0
:102650005B41FDF70DFE6422B0FBF2F102FB1103BA
:10266000DB003233B3FBF2F303F007025B0002EB53
:10267000011203F4F8731344A36070BDFFF762FB0B
:10268000DAE7B200B30FFDF7F3FD6422B0FBF2F11D
:1026900002FB11031B013233B3FBF2F303EB011313
:1026A000EAE700BF00100140F8B504460E461746A1
:1026B0001D462268136836EA030301D1002028E092
:1026C0006B1CF7D025B1FEF7FBFEC01B8542F0D294
:1026D000226802F10C0353E8003F23F4D0730C325C
:1026E00042E8003021680028F2D101F1140353E8D8
:1026F000003F23F0010301F1140040E80032002AFA
:10270000F3D1202384F83D3084F83C2084F83E3017
:102710000320F8BD10B5044640B390F83D3003F0F7
:10272000FF021BB980F83C20FEF7CCFD2268242371
:1027300084F83D30D36823F40053D3602046FFF77C
:1027400055FF23681A6922F490421A615A6922F0EF
:102750002A025A61DA6842F40052DA60002020232B
:10276000206484F83D3084F83E3010BD0120FCE741
:10277000F7B5174690F83D200093202A04460E46F0
:1027800049D1002945D0002F43D090F83C20012AA0
:1027900041D0012280F83C2000252122056480F8E8
:1027A0003D20FEF78DFEA168009BA784B1F5805FF8
:1027B0000246E78403D1216909B935460E46002156
:1027C00084F83C10E18C89B241B940212046FFF7E2
:1027D0006BFF60B9202384F83D3009E0802120465A
:1027E000CDE90023FFF760FFDDE9002310B10320EE
:1027F00003B0F0BD20684EB935F8021BC1F30801E3
:102800004160E18C013989B2E184DBE716F8011BF4
:10281000F6E70120ECE70220EAE77047704708B5C9
:10282000806B0023C385C384FFF7F8FF08BD7047A2
:1028300090F83E30222B07B541D18168836A026847
:10284000B1F5805F3ED1016900293ED15268C2F3E3
:10285000080223F8022B8362C38D013B9BB2C38520
:10286000002B2CD10268D16821F02001D160D16801
:1028700021F48071D160516921F001015161202260
:1028800080F83E20026B012A026828D1036302F11E
:102890000C0353E8003F23F0100302F10C0C4CE84A
:1028A00000310029F3D11368DB0605D501911368C7
:1028B000019353680193019B818DFFF7B8FF03B02B
:1028C0005DF804FB39B9016929B95268D2B21A70AE
:1028D000836A0133BFE7526802F07F02F7E7FEF731
:1028E000BBFBECE703681A6873B51607D9685D6926
:1028F000044608D1960668D58D0666D502B0BDE8B7
:102900007040FFF795BF05F0010001F49075054395
:102910005BD0D60705D5CD0542BF236C43F001033C
:102920002364530704D518B1236C43F002032364D6
:10293000960704D518B1236C43F0040323641507EC
:1029400007D501F0200303431EBF236C43F00803A7
:102950002364236C002B32D0920604D58B0602D55B
:102960002046FFF765FF26687369226C03F0400379
:1029700002F0080253EA0205204622D0FFF708FEC3
:1029800073695E0618D5226802F1140353E8003F0C
:1029900023F04003143242E800310029F3D1A06B48
:1029A00050B1724B0365FEF74AFE40B1A06B036D58
:1029B00002B0BDE8704018472046FFF72FFF02B075
:1029C00070BDFFF72BFF2564F9E7206B012840F06D
:1029D0009180D50640F18E80C80640F18B800022A0
:1029E00001921A6801925A680192019A5A69520634
:1029F0004CD5A16B0A68526892B2002ADFD0A08D34
:102A00009042DCD9E285CA69B2F5807F36D003F105
:102A10000C0252E8002F22F4807203F10C0040E80F
:102A200000210029F3D103F1140252E8002F22F013
:102A3000010203F1140040E800210029F3D103F161
:102A4000140252E8002F22F0400203F1140040E883
:102A500000210029F3D1202284F83E20216303F1D4
:102A60000C0252E8002F22F0100203F10C0040E8A3
:102A700000210029F3D1A06BFEF7A2FDE38DA18D0B
:102A8000C91A89B22046FFF7D2FE98E7E28DE08DA1
:102A9000A18D80B292B2002891D0891A89B2002902
:102AA0008DD003F10C0252E8002F22F4907203F152
:102AB0000C0545E800200028F3D103F1140252E888
:102AC000002F22F0010203F1140545E80020002840
:102AD000F3D1202284F83E20206303F10C0252E857
:102AE000002F22F0100203F10C0545E80020002819
:102AF000F3D1C7E7160628D50D0626D594F83D2054
:102B0000212A7FF45CAFA168226AB1F5805F17D1FA
:102B10002169A9B932F8021BC1F308015960226288
:102B2000E28C013A92B2E284002A7FF448AFDA687C
:102B300022F08002DA60DA6842F04002DA603EE7B2
:102B4000511C216212785A60EAE750067FF537AFD0
:102B50004A067FF534AFDA6822F04002DA602023BB
:102B600084F83D302046FFF758FE28E71F2800086C
:102B7000C285002382852222036480F83E200269F8
:102B800080F83C30816203681AB1DA6842F48072DE
:102B9000DA605A6942F001025A61DA6842F02002B2
:102BA000DA600020704770B490F83E60202E10D19B
:102BB00061B15AB190F83C40012C0AD0012480F850
:102BC0003C400024046370BCFFF7D2BF012070BCFE
:102BD00070470220FBE70000EFF305832BB9064B9B
:102BE000186828B901221A6070476FF00500704715
:102BF0004FF0FF30704700BF7804002010B5EFF3AE
:102C000005845CB9084B1A68012A0AD1074AD477AF
:102C100002221A6000F086FD204610BD6FF005000C
:102C2000FBE74FF0FF30F8E77804002000ED00E00C
:102C3000F0B587B00B4600210591EFF30584CCB9C0
:102C4000C0B16AB395698D4208BF1825691E37293E
:102C5000AC462AD85168C90727D456696EB1B40862
:102C6000D2E9027E116857B1BEF15B0F02D9126939
:102C700002B1E6B9059807B0F0BD8024F0E7BEF1D7
:102C8000000FF7D11269002AF4D105AACDE900C2DC
:102C9000A2B200F01AFD01281CBF00230593E9E74A
:102CA00011464FF0180C8024EFE72046E3E7CDE90A
:102CB00001270095224600F0D0FC0590DAE710B518
:102CC000EFF3058424B910B100F08AFE204610BD50
:102CD0006FF00500FBE70000034B0360034B0B6044
:102CE00080231360704700BF1C0400201C020020DA
:102CF000034B0360034B0B604FF48073136070470A
:102D00007C0800207C04002000F108034FF0FF3213
:102D1000C0E902234360036100230360704700237E
:102D20000361704743684B609A688A609A68516093
:102D300099600368086101330360704730B50C681F
:102D4000631C0AD103695A684A6091608B605960BC
:102D5000036808610133036030BD00F108021346C7
:102D600052681568A542FAD9EDE7D0E90112036966
:102D70008A6051605968814208BF5A60002202612E
:102D80001A68013A1A601868704710B5044601F0D5
:102D9000F9F9A46B01F016FAB4FA84F0400910BDF9
:102DA000F8B51546026C866B044652B9076847BBF6
:102DB000806800F04DFFA76005460136A6632846EF
:102DC000F8BD65B9406801F0DFFD6368226C13440B
:102DD000A26863609342F0D323686360EDE7C06844
:102DE00001F0D2FD226CE36851429B1A2268E36035
:102DF00093423EBFA3685B18E360022D01D116B178
:102E0000013E0025D9E73546D7E7034610B41A6CD2
:102E100008466AB1DC68996814448C4228BF196876
:102E2000DC6028BFD960D9685DF8044B01F0ACBD07
:102E30005DF8044B704770B5044601F0A3F994F8AF
:102E4000455004F124066DB2002D14DCFF2384F8F4
:102E5000453001F0B7F901F095F994F8445004F1C8
:102E600010066DB2002D12DCFF2384F84430BDE85B
:102E7000704001F0A7B9636A002BE7D0304600F03C
:102E800045FE08B100F0CEFE013D6DB2DCE72369DE
:102E9000002BE9D0304600F039FE08B100F0C2FE48
:102EA000013D6DB2DEE738B50D46044640B94FF03E
:102EB000500383F31188BFF36F8FBFF34F8FFEE78B
:102EC00001F060F9D4E90F31226862604B43D018F9
:102ED0005B1A1A44A060FF230020A063E26084F81C
:102EE000443084F84530A5B9236973B104F110006A
:102EF00000F00CFE48B14FF0E0234FF08052C3F8D1
:102F0000042DBFF34F8FBFF36F8F01F05BF90120EA
:102F100038BD04F11000FFF7F7FE04F12400FFF7BD
:102F2000F3FEF2E713B51C4640B94FF0500383F3AC
:102F30001188BFF36F8FBFF34F8FFEE743B94FF098
:102F4000500383F31188BFF36F8FBFF34F8FFEE7FA
:102F50004AB191B94FF0500383F31188BFF36F8FDB
:102F6000BFF34F8FFEE741B14FF0500383F3118859
:102F7000BFF36F8FBFF34F8FFEE750230193019B89
:102F8000502B08D04FF0500383F31188BFF36F8F9D
:102F9000BFF34F8FFEE7002908BF2246019B226046
:102FA0000123C4E90F0184F8463019462046FFF793
:102FB0007AFF9DF8103084F84C30204602B010BDE6
:102FC0002DE9F04385B0884601921F46044640B97A
:102FD0004FF0500383F31188BFF36F8FBFF34F8F10
:102FE000FEE751B9036C43B14FF0500383F31188EE
:102FF000BFF36F8FBFF34F8FFEE7022F0BD1E36B51
:10300000012B08D04FF0500383F31188BFF36F8F6B
:10301000BFF34F8FFEE700F00BFE064650B9019B51
:103020004BB14FF0500383F31188BFF36F8FBFF3A1
:103030004F8FFEE700264FF0000937E0019D1DB9D4
:1030400001F0C0F8002052E016B902A800F0A2FD7D
:1030500001F0B8F800F0ACFB01F094F894F84430BB
:10306000FF2B08BF84F8449094F84530FF2B08BF2D
:1030700084F8459001F0A6F801A902A800F096FD99
:1030800000284AD101F07EF8A26BE36B9A4231D15D
:1030900001F098F8019904F1100000F0FFFC2046BF
:1030A000FFF7C9FE00F028FC60B3012601F06AF8C2
:1030B000A26BE36B9A4201D3022FBFD13A4641463D
:1030C0002046FFF76DFE636A1BB104F1240000F097
:1030D0001DFD48B14FF0E0234FF08052C3F8042D9E
:1030E000BFF34F8FBFF36F8F01F06CF8012005B075
:1030F000BDE8F08301F066F82046FFF79CFE00F083
:10310000FBFBD2E74FF0E0234FF08052C3F8042DD1
:10311000BFF34F8FBFF36F8FC7E72046FFF78BFEDC
:1031200000F0EAFB8EE72DE9F843894690461F46FA
:10313000044640B94FF0500383F31188BFF36F8FFB
:10314000BFF34F8FFEE751B9036C43B14FF050030B
:1031500083F31188BFF36F8FBFF34F8FFEE7022F0A
:103160000BD1E36B012B08D04FF0500383F3118890
:10317000BFF36F8FBFF34F8FFEE701F019F9EFF345
:1031800011864FF0500383F31188BFF36F8FBFF3A5
:103190004F8FA26BE36B9A4201D3022F23D194F895
:1031A0004550A36B6DB23A4649462046FFF7F8FDFD
:1031B0006B1C13D1636A0BB901200BE004F12400EE
:1031C00000F0A4FC0028F7D0B8F1000FF4D00120E3
:1031D000C8F8000086F31188BDE8F88301356DB2A8
:1031E00084F84550E8E70020F4E72DE9FF410F4659
:1031F0000192044640B94FF0500383F31188BFF3A6
:103200006F8FBFF34F8FFEE751B9036C43B14FF09F
:10321000500383F31188BFF36F8FBFF34F8FFEE727
:1032200000F006FD064650B9019B4BB14FF050032C
:1032300083F31188BFF36F8FBFF34F8FFEE7002634
:103240004FF000083DE0019D1DB900F0BBFF0020DC
:1032500056E016B902A800F09DFC00F0B3FF00F0A4
:10326000A7FA00F08FFF94F84430FF2B08BF84F8D2
:10327000448094F84530FF2B08BF84F8458000F067
:10328000A1FF01A902A800F091FC002841D120462D
:10329000FFF77BFDB8B3019904F1240000F0FEFBB9
:1032A0002046FFF7C8FD00F027FB48B94FF0E023A8
:1032B0004FF08052C3F8042DBFF34F8FBFF36F8FD1
:1032C000012600F05FFFA56B002DBCD039462046DB
:1032D000013DFFF79AFDA563236973B104F1100066
:1032E00000F014FC48B14FF0E0234FF08052C3F8D7
:1032F000042DBFF34F8FBFF36F8F00F063FF0120EA
:1033000004B0BDE8F0812046FFF795FD00F0F4FA27
:10331000D6E72046FFF78FFD00F0EEFA2046FFF7D4
:1033200034FD0028CCD092E710B5074A002352F8AC
:1033300033402CB942F8331002EBC302506010BD89
:103340000133082BF3D1FAE7D808002070B5044602
:103350000D46164600F016FF94F84430FF2B04BFCC
:10336000002384F8443094F84530FF2B04BF002339
:1033700084F8453000F026FFA36B2BB9324629466E
:1033800004F1240000F0A4FB2046BDE87040FFF7E4
:1033900052BD00002DE9F041044600F0F3FE304B31
:1033A000304E1A68304F01321A603568002D4BD10B
:1033B00034601B68012B1FD1B84640460135FFF72A
:1033C000A3FC382D08F11408F7D1DFF8C480274D8D
:1033D0004046FFF799FC2846FFF796FC2448FFF784
:1033E00093FC2448FFF790FC2348FFF78DFC234B08
:1033F000C3F80080224B1D60224A1368013313601A
:10340000214A63641168E36A14208B4200FB037055
:1034100004F1040188BF1360FFF784FC00F0D2FEC2
:103420001A4B1B6873B13368DA6AE36A9A4209D2AD
:103430004FF0E0234FF08052C3F8042DBFF34F8FBD
:10344000BFF36F8FBDE8F081104B1A68E36A002A62
:10345000D2D13268D26A9A4298BF3460CCE700BFBA
:10346000840D00201809002024090020AC0D002044
:10347000CC0D0020F80D0020E40D00201C090020D8
:1034800020090020900D0020940D0020E00D002068
:10349000980D0020F8B5154B154D1C680646286898
:1034A00004300F46FFF761FC731C07D137B1296860
:1034B0001048BDE8F8400431FFF734BC2B68A4196C
:1034C0005C6007D30C4B18682968BDE8F8400431EC
:1034D000FFF734BC094B186829680431FFF72EFC4C
:1034E000074B1A68A24288BF1C60F8BD0C0E002072
:1034F00018090020E40D0020200900201C090020EC
:10350000C00D0020064A13681968064B19B94FF020
:10351000FF321A6070471268D268D2685268F8E7C2
:103520001C090020C00D002010B590F85930044649
:103530003BB9006B01F028F82046BDE8104001F0CF
:1035400023B8012BF9D0022B08D04FF0500383F39E
:103550001188BFF36F8FBFF34F8FFEE710BD0000E0
:1035600080B5134C134F144D236873B9134B1B686C
:10357000012BF8D94FF0E0234FF08052C3F8042D0F
:10358000BFF34F8FBFF36F8FEDE700F0FBFDFB68DC
:10359000DE68301DFFF7E9FB2B68013B2B602368D9
:1035A000013B236000F00EFE3046FFF7BDFFDBE776
:1035B000880D0020F80D0020840D00202409002033
:1035C0002DE9F047DDE909844FEA82094A460646BB
:1035D0000D46206BA5211F4601F0A2F9236BA9F12E
:1035E00004094B4423F00709A5B36B1E04F1330211
:1035F0000F3513F8011F02F8011F09B1AB42F8D1D2
:10360000002384F84330089D372D28BF37254FF01D
:10361000000AE562E564201DC4F850A0FFF77FFBB7
:10362000C5F1380504F11800FFF779FBC4F854A080
:103630002461A561646284F858A03A463146484640
:1036400000F074FD2060B8F1000F01D0C8F8004010
:10365000BDE8F08784F83450D5E770B586B0DDE971
:103660000B5445B94FF0500383F31188BFF36F8FAC
:10367000BFF34F8FFEE744B94FF0500383F3118837
:10368000BFF36F8FBFF34F8FFEE75C260596059E55
:103690005C2E08D04FF0500383F31188BFF36F8F77
:1036A000BFF34F8FFEE72563022584F8595004AD20
:1036B00001950A9D02940095059EFFF781FF204623
:1036C000FFF768FE049806B070BD2DE9F043074689
:1036D00085B0900088461646994600F0BDFE054626
:1036E000E8B15C2000F0B8FE0446A8B1002380F8E1
:1036F00059300D9B056301930C9B02900093324659
:103700004B4641463846FFF75BFF2046FFF742FE37
:10371000012005B0BDE8F083284600F035FF4FF0EA
:10372000FF30F6E710B588B0002407AA06A905A85F
:10373000CDE90544FFF7D0FA059B0293069B079A53
:1037400016491748CDE900432346FFF786FF18B313
:1037500000F014FB012814D14FF0500383F31188BB
:10376000BFF36F8FBFF34F8F0E4B4FF0FF321A60D6
:103770000D4B18600D4B1C6008B0BDE8104000F008
:1037800091BD013008D14FF0500383F31188BFF38E
:103790006F8FBFF34F8FFEE708B010BD485300088E
:1037A00061350008C00D0020E00D00200C0E002047
:1037B000024A136801331360704700BF8C0D00206C
:1037C000014B1868704700BF0C0E00203F4B1B6870
:1037D0002DE9F74F002B73D13D4B1D6801351D605E
:1037E000BDB93C4B1A68126842B14FF0500383F3E5
:1037F0001188BFF36F8FBFF34F8FFEE7364A19680A
:10380000106818601160354A136801331360FFF7C0
:1038100079FE334E334F3368DFF8D4809D424FF04A
:10382000000411D2D8F80030DB6A14225343FB584D
:10383000022B2D4B1B6828BF0124002B18BF01242D
:10384000204603B0BDE8F08FDFF88890DFF8A4A031
:10385000D9F800301B681BB94FF0FF333360E1E744
:10386000D9F80030DB68D3F80CB0DBF804209542BF
:1038700001D23260D6E70BF1040108460191FFF74F
:1038800074FADBF82820019922B10BF11800FFF738
:103890006CFA0199DBF82C00DAF80020142390422E
:1038A00088BFCAF8000003FB0070FFF73BFAD8F8A6
:1038B0000010DBF82C20CB6A9A4228BF0124C7E70E
:1038C0000A4A1368013313600024B9E78C0D002005
:1038D0000C0E00201C09002020090020C40D00202F
:1038E000C00D002024090020100E0020C80D00206B
:1038F00018090020940D0020F7B5314C236843B916
:103900004FF0500383F31188BFF36F8FBFF34F8FD6
:10391000FEE700F037FC2368013B236024682CB1EC
:10392000002400F04FFC204603B0F0BD254B1B687F
:10393000002BF5D0244D254E254F1EE0EB68DC68AA
:1039400004F11800FFF711FA211D08460191FFF755
:103950000CFAE36A326801991420934200FB037069
:1039600088BF3360FFF7DEF91A4BE26A1B68DB6A37
:103970009A4202D3184B01221A602B68002BDDD12A
:103980000CB1FFF7BFFD154D2C6844B1124E012755
:10399000FFF71CFF00B13760013CF9D12C600E4BE2
:1039A0001B68002BBCD04FF0E0234FF08052C3F8CF
:1039B000042DBFF34F8FBFF36F8F0124B1E700BF1A
:1039C0008C0D0020840D0020CC0D0020940D0020D3
:1039D0002409002018090020100E0020C80D002026
:1039E00008B550B94FF0E0234FF08052C3F8042DD2
:1039F000BFF34F8FBFF36F8F08BD0A4B196841B1FA
:103A00004FF0500383F31188BFF36F8FBFF34F8FD5
:103A1000FEE7FFF7CDFEFFF73DFDFFF76DFF002846
:103A2000E0D0E9E78C0D0020174B1A68174B70B5F2
:103A300012B101221A6070BD154D1A602A6815492D
:103A4000142606FB02F3C818CC588CB1446808331E
:103A5000646844600B449C4204BF63684360142361
:103A600003FB02114B68D9680B4B19602A60E2E72F
:103A700042B94FF0500383F31188BFF36F8FBFF348
:103A80004F8FFEE7013ADCE78C0D0020100E00207E
:103A9000940D0020240900201809002010B50C46C0
:103AA00040B94FF0500383F31188BFF36F8FBFF31A
:103AB0004F8FFEE7054B19681831FFF73FF9204695
:103AC0000121BDE81040FFF7E5BC00BF1809002048
:103AD00038B50D46144640B94FF0500383F31188B2
:103AE000BFF36F8FBFF34F8FFEE7074B1968183195
:103AF000FFF718F9002C21460CBF28464FF0FF3085
:103B0000BDE83840FFF7C6BC18090020C36813B5EC
:103B1000DC6844B94FF0500383F31188BFF36F8F13
:103B2000BFF34F8FFEE704F1180108460191FFF73C
:103B30001CF9124B01991B68EBB9211D0846019134
:103B4000FFF713F90E4AE36A10680199834288BFB0
:103B500013600C4A142000FB0320FFF7E3F80A4B24
:103B6000E26A1B68DB6A9A4285BF084B012000208D
:103B7000186002B010BD0648EFE700BF8C0D0020B2
:103B8000940D00202409002018090020100E0020A8
:103B9000CC0D0020034B1B680360034B1B68436084
:103BA000704700BFC40D00200C0E002070B50C46FD
:103BB000054640B94FF0500383F31188BFF36F8F70
:103BC000BFF34F8FFEE741B94FF0500383F31188E5
:103BD000BFF36F8FBFF34F8FFEE700F0D3FA0F4BA9
:103BE000196823685A1C10D00D482E6800686A684E
:103BF000864201D08A420FD9881A83420AD95B1AB9
:103C0000134423602846FFF7C5FF002400F0DAFACA
:103C1000204670BD002323600124F7E70C0E00202E
:103C2000C40D0020014B01221A607047100E0020C5
:103C3000054B1B6833B1054B1868B0FA80F040099A
:103C40004000704701207047E00D00208C0D0020DF
:103C500013B510B9002002B010BD1C4B1C68844283
:103C600008D04FF0500383F31188BFF36F8FBFF379
:103C70004F8FFEE7236D43B94FF0500383F3118854
:103C8000BFF36F8FBFF34F8FFEE7E16AE26C013B3A
:103C900091422365DED0002BDCD1211D0846019125
:103CA000FFF763F8E36C0199E362C3F13802A261A4
:103CB000074A1068834288BF1360064A142000FB3D
:103CC0000320FFF72FF80120C5E700BF18090020E7
:103CD000940D002024090020F7B5114C00F052FA91
:103CE0002568BDB90F4F104E3846FFF70DF8304626
:103CF000FFF70AF80D4B0E4A1F600E4B10211E6095
:103D00000A200D4B0095FFF70DF9206010B10B490B
:103D1000FFF70AFB03B0BDE8F04000F053BA00BF64
:103D2000380F0020BC0E0020D00E0020140E002002
:103D30001C0E0020180E0020E80E00204D53000835
:103D4000914208B5416000610AD8D31A8269934252
:103D50000DD2084B011D1868FEF7F0FF002008BDCA
:103D60009A4201D2994202D2034B011DF3E701208E
:103D7000F5E700BF180E0020140E002010B588B023
:103D8000FFF7AAFF124B1B68B3B1002407AA06A9CC
:103D900005A8CDE90544FEF7ABFF059B0293069B02
:103DA000019302230093079A0A490B482346FFF721
:103DB00054FC0A4B186040B94FF0500383F311884C
:103DC000BFF36F8FBFF34F8FFEE7012008B010BD28
:103DD000380F002052530008E53E00083C0F002039
:103DE0007FB5164604461A4640B94FF0500383F398
:103DF0001188BFF36F8FBFF34F8FFEE70D4D28681B
:103E000080B10529CDE9001602940DDCFFF710FF03
:103E10000023022808BF089A286818BF1A46694676
:103E2000FFF7CEF804B070BD00236946FFF77BF9B9
:103E3000F8E700BF380F00202DE9FF47DFF8A0802A
:103E40000646FFF7BDFCD8F80030834205460BD983
:103E5000214F4FF000093B681A686AB91F4A116880
:103E600039601360012300E0002328463360C8F85E
:103E7000005004B0BDE8F087DB68DC68D3F800A030
:103E8000211D08460391FEF770FF236A20469847DC
:103E900094F82830039913F0040FDCD0A36953443D
:103EA0009A4505D2386863602461FEF747FFD2E780
:103EB0000023CDF80090524619462046FFF790FFA8
:103EC0000028C8D14FF0500383F31188BFF36F8FE0
:103ED000BFF34F8FFEE700BF140E0020180E002026
:103EE000E40E00202DE9F0436E4D6F4E89B02B6833
:103EF000D3F80080B8F1000F35D0DB68D3F800802C
:103F00000024FFF755FC04A8FFF796FF049B8146A9
:103F1000002B69D1002C4CD1404550D3FFF7ECFC6D
:103F20002B68DB68DF68381DFEF71FFF97F8283025
:103F300058071AD5B96943464A4641443846FFF7FF
:103F4000FFFEB0B100942346424621463846FFF7B3
:103F500047FF70B94FF0500383F31188BFF36F8FA1
:103F6000BFF34F8FFEE70124CBE723F0010387F86F
:103F700028303B6A384698473068002204A9FFF78A
:103F800034F90028B3D0049B0698002B2FDB069C45
:103F90006369002B32D103A8FFF74EFF049B024652
:103FA000092BE9D8DFE803F02E2E2E575E762E2E51
:103FB000575E3E4B1B681C68B4FA84F46409306891
:103FC0002246A8EB0901FFF7C1F9FFF795FC00288D
:103FD000D2D14FF0E0234FF08052C3F8042DBFF34D
:103FE0004F8FBFF36F8FC7E7FFF786FCC4E7059BD2
:103FF00007999847049B002BBEDBC8E7201DFEF7FE
:10400000B4FEC8E794F82830A16943F0010384F8AE
:104010002830059B20461944FFF792FE0028ABD0BC
:10402000236A2046984794F828305907A4D5A269F6
:10403000059900230A44009319462046FFF7D0FE55
:10404000002899D14FF0500383F31188BFF36F8F8D
:10405000BFF34F8FFEE794F8283023F0010384F874
:10406000283089E794F8283043F0010384F8283099
:104070000599A16141B94FF0500383F31188BFF353
:104080006F8FBFF34F8FFEE7034601442046FFF7D3
:1040900057FE71E794F828309A07DED4204600F0E6
:1040A00073FA69E7140E0020380F0020180E002064
:1040B00008480068006880F308884FF0000080F32B
:1040C000148862B661B6BFF34F8FBFF36F8F00DF06
:1040D00000BF000008ED00E0DFF80C00016841F4CB
:1040E000700101607047000088ED00E082B000239D
:1040F00001930D4B1B68013308D04FF0500383F33D
:104100001188BFF36F8FBFF34F8FFEE74FF050035F
:1041100083F31188BFF36F8FBFF34F8F019B002B89
:10412000FCD002B0704700BF140000204FF0807335
:1041300040F8043C074B40F80C3C21F001016FF0C3
:10414000020340F8081C40F8202C40F8243C443876
:10415000704700BFED4000080000000000000000B4
:10416000074B19680868B0E8F04F80F30988BFF37F
:104170006F8F4FF0000080F311887047AFF300801D
:10418000180900204FF0500383F31188BFF36F8F9D
:10419000BFF34F8F0A4A13680133012B13600ED10E
:1041A0004FF0E023D3F8043DDBB243B14FF05003AE
:1041B00083F31188BFF36F8FBFF34F8FFEE7704714
:1041C00014000020084A136843B94FF0500383F3EA
:1041D0001188BFF36F8FBFF34F8FFEE7013B136072
:1041E0000BB983F311887047140000200000000011
:1041F000EFF30980BFF36F8F154B1A681EF0100F95
:1042000008BF20ED108A20E9F04F10602DE9090069
:104210004FF0500080F31188BFF34F8FBFF36F8FC3
:10422000FFF702FC4FF0000080F3118809BC196809
:104230000868B0E8F04F1EF0100F08BFB0EC108A0D
:1042400080F30988BFF36F8F704700BFAFF3008022
:104250001809002008B54FF0500383F31188BFF30D
:104260006F8FBFF34F8FFFF7B1FA28B14FF0E02304
:104270004FF08052C3F8042D002383F3118808BD4A
:104280004FF0E022002313619361054B4FF47A71E4
:104290001B68B3FBF1F3013B5361072313617047C4
:1042A000080000204FF0E02337B5D3F8001D3A4A4C
:1042B000914208D14FF0500383F31188BFF36F8F01
:1042C000BFF34F8FFEE7D3F8002D344B9A4208D14D
:1042D0004FF0500383F31188BFF36F8FBFF34F8FFD
:1042E000FEE72F4B1A78D2B20192FF221A701B7888
:1042F0002C4ADBB28DF803309DF8033003F05003F5
:104300001370294A0723136000219DF8030000065B
:1043100003F1FF340CD411B1032B136011D04FF013
:10432000500383F31188BFF36F8FBFF34F8FFEE706
:104330009DF803305B00DBB28DF80330012123468A
:10434000E3E74FF440731360019B154A4FF0E024FC
:10435000DBB21370D4F8203D43F47003C4F8203D61
:10436000D4F8203D43F07043C4F8203DFFF788FFA8
:104370000E4B00251D60FFF7AFFED4F8343F43F02D
:104380004043C4F8343FFFF793FEFFF74DFBFFF7C0
:10439000ADFE284603B030BD71C20F4170C20F415F
:1043A00000E400E0400F0020440F00201400002033
:1043B000EFF305830F2B0ED9114A9B5C114A12783B
:1043C0009A4208D94FF0500383F31188BFF36F8FDF
:1043D000BFF34F8FFEE74FF0E0230B4AD3F80C3DBD
:1043E000126803F4E063934208D94FF0500383F35B
:1043F0001188BFF36F8FBFF34F8FFEE7704700BF89
:10440000F0E300E0400F0020440F002010B5104BF7
:104410001A461B688342FBD354681119884201BFB6
:104420004168104609195160446801198B420CD14A
:10443000084909688B4203D05968214441601968D2
:104440000160904218BF106010BD1946F8E700BF28
:10445000604B0020480F00202DE9F0410446FFF793
:10446000A7F94249424D0B680BBB424A56071FBF92
:10447000D01D20F0070002F57052131A0CBF4FF444
:104480007053024613443C4E083B23F007030020C0
:1044900070603260C3E90000981AC2E900300B6016
:1044A000364B1860364B18604FF000432B602E6877
:1044B000264255D1002C46D004F1080360071CBFEA
:1044C00023F007030833002B4AD02D4F3C689C4251
:1044D00046D3294A15686868984204D2D5F800C0C6
:1044E000BCF1000F15D10968A94239D02968D2F86A
:1044F00000801160C21A102A12D9E81841070BD0A7
:104500004FF0500383F31188BFF36F8FBFF34F8FCA
:10451000FEE72A466546DEE742606B60FFF776FFFE
:104520006A681649A41A1643164A08683C600023B4
:104530002B6013686E60844203F1010338BF0C6086
:10454000136008F10804FFF7D7F963070AD04FF0AA
:10455000500383F31188BFF36F8FBFF34F8FFEE7D4
:104560000024F0E72046BDE8F08100BF480F00209E
:104570004C4B00204C0F0020604B0020544B00207F
:10458000504B0020584B002010B5044690B31A4AF7
:1045900050F8043C1268134208D14FF0500383F3E3
:1045A0001188BFF36F8FBFF34F8FFEE750F8081CE1
:1045B00041B14FF0500383F31188BFF36F8FBFF306
:1045C0004F8FFEE723EA020340F8043CFFF7F0F8C0
:1045D0000A4A54F8043C1168A4F108000B44136023
:1045E000FFF714FF064A1368BDE81040013313605B
:1045F000FFF782B910BD00BF4C4B0020504B00208C
:104600005C4B002070B50A46044601B101221348F4
:10461000124E4FF48071FDF7FFF80825002220218B
:104620003046FDF7F9F823064CBF01220022402155
:104630003046FDF7F1F8013D012220213046FDF71B
:10464000EBF8640015F0FF05E4B2E7D1BDE8704077
:10465000024801224FF48071FDF7DEB800100240DD
:1046600070B50F4EB02400212046FFF7CBFF00218C
:104670000846FFF7C7FF00211020FFF7C3FF002502
:1046800016F8350001210135FFF7BCFF802DF7D169
:104690000134E4B2B82C06F10106E4D170BD00BFCC
:1046A000684B00200023084810B41C460022C118A3
:1046B00001F832400132802AFAD10133082BF5D1BA
:1046C0005DF8044BFFF7CCBF684B0020030610B524
:1046D00012D43F2910D801F00703C3F107030124C6
:1046E0009C40C908064BC1F10701C9B203EBC000E9
:1046F000435C12B12343435410BD23EA0403FAE799
:10470000684B00202DE9F74F1F46203A1E4B9DF8BD
:1047100030B0D2B203EB021301931C4B02EB420206
:1047200003EB82038146884600930C460026B7427D
:1047300002D103B0BDE8F08F0C2F0CBF009B019B92
:104740009D5D04F108035FFA83FA2B0658BFBBFA9C
:104750008BF2214604F101044CBF5A4652094846E7
:10476000E4B2FFF7B3FFA4EB08026D00BA42EDB26A
:1047700007D109F101005FFA80F9C24601365446BB
:10478000D5E7A245E1D1F9E7CE5700085A53000812
:10479000F7B504460D46561E012716F8013F0BB922
:1047A00003B0F0BD7A2C82BF1035EDB200243A2D53
:1047B00003D9FFF777FF00252C4600972046327873
:1047C0000C2329460834FFF79DFFE4B2E5E700001B
:1047D00010B5FDF727F8404B404C1A6F22F001024C
:1047E0001A671A6F22F004021A67FDF729F80022EF
:1047F00080212046FDF710F86420FCF767FE0122B7
:1048000020468021FDF708F80021AE20FFF7FAFED0
:104810000021D520FFF7F6FE00215020FFF7F2FE21
:104820000021A820FFF7EEFE00213F20FFF7EAFE5F
:104830000021D320FFF7E6FE00210846FFF7E2FE45
:1048400000214020FFF7DEFE00218D20FFF7DAFE79
:1048500000211420FFF7D6FE00212020FFF7D2FE12
:1048600000210220FFF7CEFE0021A120FFF7CAFEA3
:104870000021C020FFF7C6FE0021DA20FFF7C2FEAC
:1048800000211220FFF7BEFE00218120FFF7BAFEB3
:104890000021EF20FFF7B6FE0021D920FFF7B2FE7E
:1048A0000021F120FFF7AEFE0021DB20FFF7AAFE7A
:1048B00000213020FFF7A6FE0021A420FFF7A2FE72
:1048C0000021A620FFF79EFE0021AF20FFF79AFEF1
:1048D000BDE81040FFF7E6BE00380240001002407D
:1048E0000EB400B59CB01DAB029006906FF0004175
:1048F000094807910491094953F8042B0591006870
:10490000019302A900F0A0F9029B00221A701CB0CA
:104910005DF804EB03B07047640000200802FFFF5D
:1049200002440346934200D1704703F8011BF9E7A4
:10493000014B1868704700BF6400002070B50D4D32
:104940000D4C641BA4100026A64209D10B4D0C4C43
:1049500000F06AFC641BA4100026A64205D170BDBD
:1049600055F8043B98470136EEE755F8043B984765
:104970000136F2E7FC5D0008FC5D0008FC5D000804
:10498000005E0008704770470A44914200F1FF330F
:1049900000D1704710B511F8014B03F8014F914257
:1049A000F9D110BD37B5002944D051F8043C01902D
:1049B000002BA1F10404B8BFE41800F0DFF81E4A90
:1049C0000198136833B96360146003B0BDE83040E8
:1049D00000F0DAB8A34208D9256861198B4201BFFB
:1049E00019685B6849192160EDE71A465B680BB1ED
:1049F000A342FAD911685518A5420BD12468214465
:104A00005418A3421160E0D11C685B6853600C44E9
:104A10001460DAE702D90C230360D6E72568611930
:104A20008B4204BF19685B68636004BF4919216049
:104A30005460CAE703B030BDA850002070B50E4ED8
:104A40000C463168054611B900F0A6FB30602146DE
:104A5000284600F0A1FB431C0AD0C41C24F0030428
:104A6000A04207D0211A284600F096FB013001D160
:104A70004FF0FF34204670BDAC5000202DE9F843C4
:104A8000CD1C25F0030508350C2D38BF0C25002D55
:104A9000074601DBA94205D90C233B6000263046BE
:104AA000BDE8F883DFF8D08000F068F8D8F800306F
:104AB0001C465CBB29463846FFF7C0FF431C044632
:104AC00055D1D8F800402646002E45D1002C48D0BC
:104AD00023683146384604EB030900F05DFB81454D
:104AE0003FD121686D1A29463846FFF7A7FF0130EC
:104AF00037D023682B442360D8F80030002B38D0FF
:104B00005A68A2422BD100225A600FE02268521B41
:104B10001FD40B2A17D96119A342256018BF596009
:104B2000636808BFC8F8001062514B60384604F152
:104B30000B0600F029F826F00706231DF21AAED066
:104B40009B1BA350ABE7A3426268DDD1C8F80020ED
:104B5000ECE723466468ACE734467668B4E713466E
:104B6000CCE70C233B60384600F00EF897E7256051
:104B7000DCE75B60FFDE00BFA85000200148FFF7C4
:104B800001BF00BFA45000200148FFF7FCBE00BFDA
:104B9000A45000202DE9F0478E681F46BE420B68E6
:104BA00082460C4690462CD88A8912F4906F26D003
:104BB0006569096905EB4505A3EB010905EBD575A9
:104BC0007B1C4B446D109D4238BF1D46530527D5B5
:104BD0002946FFF753FF064660B321694A46FFF7AF
:104BE000D3FEA38923F4906343F08003A38126615D
:104BF00065614E44A5EB09052660A5603E46BE42B0
:104C000000D93E4620683246414600F0ABFAA36820
:104C10009B1BA3602368334423600020BDE8F0871A
:104C20002A4600F0C9FA06460028E0D1216950461C
:104C3000FFF7B8FE0C23CAF80030A38943F0400305
:104C4000A3814FF0FF30E9E72DE9F04F98468B89BB
:104C50001B069DB007460D4614460ED50B6963B979
:104C60004021FFF70BFF2860286120B90C233B602F
:104C70004FF0FF30D0E040236B61002309932023E5
:104C80008DF82930CDF80C803023DFF8A4818DF821
:104C90002A304FF0010923469A4613F8012B0AB136
:104CA000252AF9D1BAEB040B0BD05B4622462946E4
:104CB0003846FFF76FFF013000F0A980099A5A4487
:104CC00009929AF80030002B00F0A18000234FF0E9
:104CD000FF32CDE905230AF1010A049307938DF809
:104CE00053301A935446052214F8011B5048FBF721
:104CF0006FFA049AD8B9D00644BF20238DF85330F8
:104D0000110744BF2B238DF853309AF800302A2B1B
:104D100015D0079A544600204FF00A0C214611F88E
:104D2000013B303B092B4DD9B0B1079214E0A0EB09
:104D3000080309FA03F313430493A246D2E7039B43
:104D4000191D1B680391002BBBBF5B4242F002029E
:104D500007930793B8BF049223782E2B0CD1637866
:104D60002A2B34D1039B1A1D1B680392002BB8BF5A
:104D70004FF0FF3302340593DFF8C4A021780322FB
:104D80005046FBF725FA38B1049BA0EB0A004022FD
:104D9000824013430134049314F8011B25488DF815
:104DA00028100622FBF714FA002838D0224B1BBB30
:104DB000039B073323F0070308330393099B334412
:104DC000099368E70CFB02320C460120A6E700239A
:104DD0000134059319464FF00A0C204610F8012BB8
:104DE000303A092A03D9002BC6D00591C4E70CFB41
:104DF000012104460123F0E703AB00932A460F4B41
:104E000004A93846AFF30080421C0646D6D1AB89D0
:104E10005B063FF52DAF09981DB0BDE8F08F03ABE1
:104E200000932A46054B04A9384600F079F8EBE7D1
:104E3000BE5D0008C85D000800000000954B00083A
:104E4000C45D00082DE9F047164699468A680B694B
:104E5000DDF820809342B8BF1346336091F84320B9
:104E600007460C460AB1013333602368990642BFF6
:104E7000336802333360256815F0060506D104F166
:104E8000190AE36832689B1AAB4226DC94F8432087
:104E9000131E226818BF012392062BD404F143028B
:104EA00049463846C04701301ED02368226903F0C6
:104EB0000603042B02BFE5683368ED1AA3680CBF34
:104EC00025EAE57500259342C4BF9B1AED1800261C
:104ED0001A34B5421AD1002008E00123524649464F
:104EE0003846C047013003D14FF0FF30BDE8F087AE
:104EF0000135C6E7E1185A1C302081F843002244EE
:104F000094F8451082F843100233C7E70123224684
:104F100049463846C0470130E6D00136D9E700009F
:104F20002DE9FF470F7E0C9D782F914680460C4659
:104F30009A4601F1430207D8622F0AD8002F00F0E9
:104F4000D480582F00F0C08004F1420584F84270EC
:104F50003AE0A7F16303152BF6D801A151F823F02D
:104F6000B94F0008CD4F0008494F0008494F0008CD
:104F7000494F0008494F0008CD4F0008494F00082D
:104F8000494F0008494F0008494F0008D150000818
:104F9000F94F00088B500008494F0008494F00089E
:104FA000F3500008494F0008F94F0008494F000826
:104FB000494F0008935000082B681A1D1B682A608F
:104FC00004F1420584F8423001239FE020682B68F9
:104FD000070603F10401296001D51E6803E04606B7
:104FE000FBD5B3F90060002E03DA2D23764284F856
:104FF00043305A480A2312E02B682068191D2960A3
:10500000050601D51E6802E04106FBD51E885348FF
:105010006F2F0CBF08230A23002184F84310656812
:10502000A560002DA2BF216821F0040121600EB906
:10503000002D4BD01546B6FBF3F103FB1167C75D9E
:1050400005F8017D3746BB420E46F4D9082B0BD13B
:105050002368DE0708D5236961689942DEBF3023E3
:1050600005F8013C05F1FF35521B2261CDF800A087
:105070004B4603AA21464046FFF7E4FE01304AD1E1
:105080004FF0FF3004B0BDE8F087236843F0200301
:1050900023603348782784F84570236829681F0601
:1050A00051F8046B02D45F0648BFB6B2DF0748BFB1
:1050B00043F02003296048BF23601EB9236823F012
:1050C000200323601023A7E72448E4E71546BDE743
:1050D0002B6826686169181D286035061B6801D594
:1050E000196002E07006FBD5198000232361154684
:1050F000BCE72B681A1D2A601D68626800212846DB
:10510000FBF766F808B1401B606063682361002309
:1051100084F84330AAE723692A4649464046D047E7
:105120000130ADD023689B0713D4E068039B9842FD
:10513000B8BF1846A6E70123324649464046D04745
:1051400001309DD00135E36803995B1AAB42F2DC74
:10515000EBE7002504F11906F5E700BFCF5D000875
:10516000E05D0008884210B501EB020402D98442D8
:10517000234607D8431EA14208D011F8012B03F89B
:10518000012FF8E7024401468A4200D110BD13F80E
:10519000014D02F8014DF7E738B5064D00230446EE
:1051A00008462B60FCF7EEF8431C02D12B6803B1D4
:1051B000236038BDA05000202DE9F0418046144600
:1051C0000E4621B9BDE8F0411146FFF757BC2AB998
:1051D000FFF7E8FB25462846BDE8F08100F01BF804
:1051E0008442074602D8B4EB500F12D821464046FD
:1051F000FFF744FC05460028EDD0BC42224631466C
:1052000028BF3A46FFF7C0FB31464046FFF7CAFBCE
:10521000E1E73546DFE751F8043C181F002BBCBF1F
:105220000B58C01870470000F8B500BFF8BC08BCA8
:105230009E467047F8B500BFF8BC08BC9E46704754
:10524000537065656420313A2535640000537065FC
:10525000656420323A253564000070776D526967C5
:1052600068743A253564000070776D4C6566743A51
:1052700025356400004F4C45445461736B00456E06
:10528000636F6465725461736B004D6F746F725419
:1052900061736B0064656661756C745461736B0057
:1052A0007E52000800000000000000000000000026
:1052B00000000000000200000800000000000000E4
:1052C000000000008A5200080000000000000000FA
:1052D00000000000000000000002000008000000C4
:1052E00000000000000000007552000800000000EF
:1052F00000000000000000000000000000020000AC
:1053000008000000000000000000000094520008A7
:10531000000000000000000000000000000000008D
:105320000002000018000000000000000000000063
:105330000000000000000000010203040607080945
:10534000000000000102030449444C4500546D7202
:105350005100546D7220537663000000000000007D
:10536000000000000000000000003F4000000000BE
:105370000000000030004000300040000000090044
:105380000BC03D000BC03D00090018C024407FE069
:10539000224031800000180024C01B000D803240E4
:1053A000018003801C4027401C8007400040100003
:1053B000600000000000000000000000000000008D
:1053C0001F80204040200000402020401F8000001F
:1053D0000000090006001F8006000900000004000C
:1053E00004003F8004000400000000100060000082
:1053F0000000000000000400040004000400040099
:10540000000000000040000000000000000000203C
:1054100001C006003800400000001F8020402040EE
:1054200020401F800000000010403FC000400000EE
:10543000000018C021402240244018400000108085
:105440002040244024401B80000002000D00110079
:105450003FC0014000003C80244024402440238081
:1054600000001F80244024403440038000003000AE
:10547000200027C03800200000001B80244024406A
:1054800024401B8000001C0022C0224022401F80BC
:1054900000000000000008400000000000000000C4
:1054A00000000460000000000000000004000A008A
:1054B000110020804040090009000900090009008E
:1054C000000000004040208011000A000400180085
:1054D000200023402400180000001F8020402740A7
:1054E00029401F400000004007C039000F0001C0E4
:1054F000004020403FC0244024401B8000001F800B
:105500002040204020403080000020403FC020400C
:1055100020401F80000020403FC024402E4030C06B
:10552000000020403FC024402E00300000000F004B
:105530001080204022403380020020403FC0040001
:1055400004003FC02040204020403FC02040204079
:1055500000000060202020203FC0200020002040CC
:105560003FC024400B0030C0204020403FC02040BE
:105570000040004000C03FC03C0003C03C003FC0B2
:10558000000020403FC00C4023003FC020001F808F
:105590002040204020401F80000020403FC0244089
:1055A0002400180000001F802140214020E01FA09F
:1055B000000020403FC02440260019C0004018C011
:1055C00024402440224031800000300020403FC071
:1055D00020403000000020003F80004000403F801D
:1055E000200020003E0001C00700380020003800E5
:1055F00007C03C0007C038000000204039C006004A
:1056000039C0204000002000384007C0384020004A
:105610000000304021C02640384020C0000000007B
:1056200000007FE0402040200000000070000C00DF
:105630000380004000000000402040207FE0000088
:1056400000000000200040002000000000000010CA
:1056500000100010001000100010000000004000BA
:10566000000000000000000002800540054003C06B
:10567000004020003FC004400440038000000000C0
:105680000380044004400640000000000380044002
:1056900024403FC000400000038005400540034017
:1056A0000000000004401FC02440244020000000EF
:1056B00002E0055005500650042020403FC0044041
:1056C000040003C000400000044027C00040000068
:1056D000000000100010041027E00000000020402F
:1056E0003FC00140070004C00440204020403FC0AC
:1056F00000400040000007C0040007C0040003C0D1
:105700000000044007C00440040003C00040000043
:1057100003800440044003800000041007F004509C
:10572000044003800000000003800440045007F0A0
:105730000010044007C00240040004000000000004
:1057400006400540054004C00000000004001F8022
:10575000044000400000040007800040044007C0EF
:1057600000400400070004C0018006000400060099
:1057700001C0070001C006000000044006C001008F
:1057800006C0044000000410071004E00180060079
:1057900004000000044005C0064004400000000072
:1057A000000004007BE0402000000000000000003A
:1057B000FFF000000000000040207BE0040000003B
:1057C0000000400080004000200020004000000059
:1057D00000000000000000000000000000000000C9
:1057E000000000001FCC000C0000000000000000C2
:1057F0000800300060000800300060000000022057
:1058000003FC1E20022003FC1E20022000000000DA
:105810000E1811043FFF10840C78000000000F00E8
:1058200010840F3800C007781884007800000078D2
:105830000F8410C411240E9800E4008400080800AE
:105840006800700000000000000000000000000080
:105850000000000007E018182004400200000000CB
:1058600040022004181807E0000000000000024079
:10587000024001800FF001800240024000000080E1
:10588000008000800FF80080008000800000000190
:10589000000D000E000000000000000000000000ED
:1058A0000080008000800080008000800080000078
:1058B000000C000C000000000000000000000000D0
:1058C000000600180060018006001800200000009B
:1058D00007F0080810041004080807F00000000092
:1058E000080408041FFC000400040000000000007D
:1058F0000E0C10141024104411840E0C0000000033
:105900000C1810041104110412880C70000000001F
:1059100000E00320042408241FFC002400000000F1
:105920001F981084110411041088107000000000EA
:1059300007F00888110411041888007000000000A6
:105940001C00100010FC13001C00100000000000E0
:105950000E3811441084108411440E3800000000E9
:105960000700088C10441044088807F0000000006D
:1059700000000000030C030C000000000000000009
:10598000000000010106000000000000000000000F
:1059900000800140022004100808100400000220CA
:1059A000022002200220022002200220000000002B
:1059B00010040808041002200140008000000000CC
:1059C0000E001200100C106C10800F00000003E09D
:1059D0000C1813E4142417C4082807D0000000048E
:1059E000003C03C41C40074000E4001C00041004F9
:1059F0001FFC1104110411040E880070000003E064
:105A00000C1810041004100410081C1000001004DE
:105A10001FFC100410041004080807F00000100414
:105A20001FFC1104110417C410040818000010040E
:105A30001FFC1104110017C010000800000003E053
:105A40000C181004100410441C78004000001004CE
:105A50001FFC10840080008010841FFC10040000D4
:105A6000100410041FFC10041004000000000003C8
:105A70000001100110011FFE1000100000001004B2
:105A80001FFC110403801464181C1004000010048F
:105A90001FFC1004000400040004000C00001004AB
:105AA0001FFC1F0000FC1F001FFC1004000010045E
:105AB0001FFC0C04030000E010181FFC100007F08E
:105AC0000808100410041004080807F0000010046F
:105AD0001FFC10841080108010800F00000007F061
